{
  "contractName": "SimpleStorage",
  "abi": [
    {
      "constant": false,
      "inputs": [
        {
          "internalType": "uint256",
          "name": "thisYear",
          "type": "uint256"
        },
        {
          "internalType": "uint256",
          "name": "lastYear",
          "type": "uint256"
        }
      ],
      "name": "TrafficVolumePerformanceReward",
      "outputs": [],
      "payable": false,
      "stateMutability": "nonpayable",
      "type": "function"
    },
    {
      "constant": true,
      "inputs": [],
      "name": "getResult",
      "outputs": [
        {
          "internalType": "uint256",
          "name": "",
          "type": "uint256"
        }
      ],
      "payable": false,
      "stateMutability": "view",
      "type": "function"
    },
    {
      "constant": true,
      "inputs": [],
      "name": "get",
      "outputs": [
        {
          "internalType": "uint256",
          "name": "",
          "type": "uint256"
        }
      ],
      "payable": false,
      "stateMutability": "view",
      "type": "function"
    },
    {
      "constant": false,
      "inputs": [
        {
          "internalType": "uint256",
          "name": "x",
          "type": "uint256"
        }
      ],
      "name": "set",
      "outputs": [],
      "payable": false,
      "stateMutability": "nonpayable",
      "type": "function"
    }
  ],
  "bytecode": "0x608060405234801561001057600080fd5b50610153806100206000396000f3fe608060405234801561001057600080fd5b506004361061004c5760003560e01c806360fe47b1146100515780636d4ce63c1461007f57806370e6bc751461009d578063de292789146100d5575b600080fd5b61007d6004803603602081101561006757600080fd5b81019080803590602001909291905050506100f3565b005b6100876100fd565b6040518082815260200191505060405180910390f35b6100d3600480360360408110156100b357600080fd5b810190808035906020019092919080359060200190929190505050610106565b005b6100dd610114565b6040518082815260200191505060405180910390f35b8060008190555050565b60008054905090565b600f82026001819055505050565b600060015490509056fea265627a7a72315820837d05f61e6e9ed0a0a60eec2aeb7818d8af57735bb83758b1ab710fcb69062864736f6c63430005100032",
  "source": "// SPDX-License-Identifier: MIT\r\npragma solidity >=0.4.21 <0.7.0;\r\n\r\ncontract SimpleStorage {\r\n  uint storedData;\r\n  uint result;\r\n  uint temp;\r\n\r\n  function TrafficVolumePerformanceReward(uint thisYear, uint lastYear) public {\r\n    result = thisYear * 15;\r\n  }\r\n\r\n  function getResult() public view returns (uint) {\r\n    return result;\r\n  }\r\n\r\n  function get() public view returns (uint) {\r\n    return storedData;\r\n  }\r\n\r\n  function set(uint x) public {\r\n    storedData = x;\r\n  }\r\n}\r\n",
  "sourcePath": "C:/Users/JJoyce/Documents/GitHub/MOTC_Competition_Contract/contracts/SimpleStorage.sol",
  "compiler": {
    "name": "solc",
    "version": "0.5.16+commit.9c3226ce.Emscripten.clang"
  },
  "schemaVersion": "3.2.3",
  "updatedAt": "2020-08-23T04:29:03.697Z",
  "devdoc": {
    "methods": {}
  },
  "userdoc": {
    "methods": {}
  }
}