{
  "contractName": "Subsidy",
  "abi": [
    {
      "inputs": [],
      "payable": false,
      "stateMutability": "nonpayable",
      "type": "constructor"
    },
    {
      "constant": false,
      "inputs": [
        {
          "internalType": "string",
          "name": "_routeName",
          "type": "string"
        },
        {
          "internalType": "uint256",
          "name": "_routeNum",
          "type": "uint256"
        },
        {
          "internalType": "string",
          "name": "_routeTime",
          "type": "string"
        },
        {
          "internalType": "uint256",
          "name": "_cost",
          "type": "uint256"
        },
        {
          "internalType": "uint256",
          "name": "_incomePerCar",
          "type": "uint256"
        },
        {
          "internalType": "uint256",
          "name": "_timesPerCar",
          "type": "uint256"
        },
        {
          "internalType": "uint256",
          "name": "_numberOfDate",
          "type": "uint256"
        },
        {
          "internalType": "uint256",
          "name": "_mileage",
          "type": "uint256"
        },
        {
          "internalType": "uint256",
          "name": "_ratio",
          "type": "uint256"
        },
        {
          "internalType": "uint256",
          "name": "_companyScore",
          "type": "uint256"
        }
      ],
      "name": "pushData",
      "outputs": [
        {
          "internalType": "bool",
          "name": "",
          "type": "bool"
        }
      ],
      "payable": false,
      "stateMutability": "nonpayable",
      "type": "function"
    },
    {
      "constant": true,
      "inputs": [
        {
          "internalType": "uint256",
          "name": "_route",
          "type": "uint256"
        }
      ],
      "name": "getBonus",
      "outputs": [
        {
          "internalType": "uint256",
          "name": "",
          "type": "uint256"
        }
      ],
      "payable": false,
      "stateMutability": "view",
      "type": "function"
    },
    {
      "constant": true,
      "inputs": [],
      "name": "getBonusLength",
      "outputs": [
        {
          "internalType": "uint256",
          "name": "",
          "type": "uint256"
        }
      ],
      "payable": false,
      "stateMutability": "view",
      "type": "function"
    }
  ],
  "bytecode": "0x60806040523480156200001157600080fd5b50600060405180606001604052806040518060400160405280600581526020017fe5b08f313400000000000000000000000000000000000000000000000000000081525081526020016040518060400160405280600481526020017f353630300000000000000000000000000000000000000000000000000000000081525081526020016040518060400160405280600d81526020017f3130392d382d32322d32323030000000000000000000000000000000000000008152508152509080600181540180825580915050906001820390600052602060002001600090919290919091509060036200010592919062000252565b505060016040518061010001604052806115e061ffff1681526020016196aa61ffff16815260200161382b61ffff168152602001600461ffff168152602001607961ffff16815260200161038e61ffff168152602001606461ffff168152602001606461ffff16815250908060018154018082558091505090600182039060005260206000200160009091929091909150906008620001a6929190620002b9565b5050600260405180604001604052806115e08152602001620001e06115e06196aa61382b6004607961038e6064806200022260201b60201c565b8152509080600181540180825580915050906001820390600052602060002001600090919290919091509060026200021a92919062000311565b50506200048f565b600080633b9aca00838587898b8d8f030202020202816200023f57fe5b0490508091505098975050505050505050565b828054828255906000526020600020908101928215620002a6579160200282015b82811115620002a55782518290805190602001906200029492919062000363565b509160200191906001019062000273565b5b509050620002b59190620003ea565b5090565b828054828255906000526020600020908101928215620002fe579160200282015b82811115620002fd578251829061ffff16905591602001919060010190620002da565b5b5090506200030d91906200041b565b5090565b82805482825590600052602060002090810192821562000350579160200282015b828111156200034f57825182559160200191906001019062000332565b5b5090506200035f91906200041b565b5090565b828054600181600116156101000203166002900490600052602060002090601f016020900481019282601f10620003a657805160ff1916838001178555620003d7565b82800160010185558215620003d7579182015b82811115620003d6578251825591602001919060010190620003b9565b5b509050620003e691906200041b565b5090565b6200041891905b808211156200041457600081816200040a919062000443565b50600101620003f1565b5090565b90565b6200044091905b808211156200043c57600081600090555060010162000422565b5090565b90565b50805460018160011615610100020316600290046000825580601f106200046b57506200048c565b601f0160209004906000526020600020908101906200048b91906200041b565b5b50565b610a7f806200049f6000396000f3fe608060405234801561001057600080fd5b50600436106100415760003560e01c80634aa66b281461004657806369f5047314610088578063840f0ed7146100a6575b600080fd5b6100726004803603602081101561005c57600080fd5b8101908080359060200190929190505050610261565b6040518082815260200191505060405180910390f35b6100906102f9565b6040518082815260200191505060405180910390f35b61024760048036036101408110156100bd57600080fd5b81019080803590602001906401000000008111156100da57600080fd5b8201836020820111156100ec57600080fd5b8035906020019184600183028401116401000000008311171561010e57600080fd5b91908080601f016020809104026020016040519081016040528093929190818152602001838380828437600081840152601f19601f820116905080830192505050505050509192919290803590602001909291908035906020019064010000000081111561017b57600080fd5b82018360208201111561018d57600080fd5b803590602001918460018302840111640100000000831117156101af57600080fd5b91908080601f016020809104026020016040519081016040528093929190818152602001838380828437600081840152601f19601f82011690508083019250505050505050919291929080359060200190929190803590602001909291908035906020019092919080359060200190929190803590602001909291908035906020019092919080359060200190929190505050610306565b604051808215151515815260200191505060405180910390f35b600080600090505b6002805490508110156102ee576002818154811061028357fe5b9060005260206000200160008154811061029957fe5b90600052602060002001548314156102e157600281815481106102b857fe5b906000526020600020016001815481106102ce57fe5b90600052602060002001549150506102f4565b8080600101915050610269565b50600090505b919050565b6000600280549050905090565b60008060009050600080905060008090505b600080549050811015610666576000818154811061033257fe5b9060005260206000200160008154811061034857fe5b9060005260206000200160405160200180828054600181600116156101000203166002900480156103b05780601f1061038e5761010080835404028352918201916103b0565b820191906000526020600020905b81548152906001019060200180831161039c575b5050915050604051602081830303815290604052805190602001208e6040516020018082805190602001908083835b6020831061040257805182526020820191506020810190506020830392506103df565b6001836020036101000a038019825116818451168082178552505050505050905001915050604051602081830303815290604052805190602001201415610659576000818154811061045057fe5b9060005260206000200160028154811061046657fe5b9060005260206000200160405160200180828054600181600116156101000203166002900480156104ce5780601f106104ac5761010080835404028352918201916104ce565b820191906000526020600020905b8154815290600101906020018083116104ba575b5050915050604051602081830303815290604052805190602001208c6040516020018082805190602001908083835b6020831061052057805182526020820191506020810190506020830392506104fd565b6001836020036101000a03801982511681845116808217855250505050505090500191505060405160208183030381529060405280519060200120141561056a5760019250610658565b60016040518061010001604052808f81526020018d81526020018c81526020018b81526020018a8152602001898152602001888152602001878152509080600181540180825580915050906001820390600052602060002001600090919290919091509060086105db929190610837565b505060006105ef8e8d8d8d8d8d8d8d610808565b905080600283815481106105ff57fe5b9060005260206000200160018154811061061557fe5b9060005260206000200154016002838154811061062e57fe5b9060005260206000200160018154811061064457fe5b906000526020600020018190555060019250505b5b8080600101915050610318565b5081158015610673575080155b156107e257600060405180606001604052808f81526020016040518060400160405280600981526020017f5f726f7574654e756d000000000000000000000000000000000000000000000081525081526020018d8152509080600181540180825580915050906001820390600052602060002001600090919290919091509060036106ff929190610884565b505060016040518061010001604052808e81526020018c81526020018b81526020018a815260200189815260200188815260200187815260200186815250908060018154018082558091505090600182039060005260206000200160009091929091909150906008610772929190610837565b505060006107868d8c8c8c8c8c8c8c610808565b9050600260405180604001604052808f8152602001838152509080600181540180825580915050906001820390600052602060002001600090919290919091509060026107d49291906108e4565b5050600193505050506107fa565b80156107f3576001925050506107fa565b6000925050505b9a9950505050505050505050565b600080633b9aca00838587898b8d8f0302020202028161082457fe5b0490508091505098975050505050505050565b828054828255906000526020600020908101928215610873579160200282015b82811115610872578251825591602001919060010190610857565b5b5090506108809190610931565b5090565b8280548282559060005260206000209081019282156108d3579160200282015b828111156108d25782518290805190602001906108c2929190610956565b50916020019190600101906108a4565b5b5090506108e091906109d6565b5090565b828054828255906000526020600020908101928215610920579160200282015b8281111561091f578251825591602001919060010190610904565b5b50905061092d9190610931565b5090565b61095391905b8082111561094f576000816000905550600101610937565b5090565b90565b828054600181600116156101000203166002900490600052602060002090601f016020900481019282601f1061099757805160ff19168380011785556109c5565b828001600101855582156109c5579182015b828111156109c45782518255916020019190600101906109a9565b5b5090506109d29190610931565b5090565b6109ff91905b808211156109fb57600081816109f29190610a02565b506001016109dc565b5090565b90565b50805460018160011615610100020316600290046000825580601f10610a285750610a47565b601f016020900490600052602060002090810190610a469190610931565b5b5056fea265627a7a72315820f3c8fa00ef3b6f9130b4993783586cb9ad77d96ab529f705c2791160d8835de164736f6c63430005100032",
  "source": "pragma solidity >=0.4.21 <0.7.0;\r\n\r\ncontract Subsidy {\r\n    string[][] private routeInfo;  //[routeName, routeNum, routeTime]\r\n    uint[][] private calInfo;      //[routeNum, cost, incomePerCar, timesPerCar, numberOfDate, mileage, ratio, companyScore]\r\n    uint[][] private bonus;        //[routeNum, amount]\r\n    \r\n    \r\n    constructor() public { \r\n        routeInfo.push([\"小14\", \"5600\", \"109-8-22-2200\"]);\r\n        calInfo.push([5600, 38570, 14379, 4, 121, 910, 100, 100]);\r\n        bonus.push([5600, cal(5600, 38570, 14379, 4, 121, 910, 100, 100)]);\r\n    }\r\n    \r\n    function pushData(string memory _routeName, uint _routeNum, string memory _routeTime, uint _cost, uint _incomePerCar, uint _timesPerCar, uint _numberOfDate, uint _mileage, uint _ratio, uint _companyScore) public returns (bool) {\r\n        bool tag = false;\r\n        bool modifyOrNot = false;\r\n        for(uint i = 0; i < routeInfo.length; i++) {\r\n            if(keccak256(abi.encodePacked(_routeName)) == keccak256(abi.encodePacked(routeInfo[i][0]))) {\r\n                if(keccak256(abi.encodePacked(_routeTime)) == keccak256(abi.encodePacked(routeInfo[i][2]))) {\r\n                    //route and time are same, reject\r\n                    tag = true;\r\n                }\r\n                else {\r\n                    //same route but different time\r\n                    //routeInfo.push([_routeName, \"_routeNum\", _routeTime]);\r\n                    calInfo.push([_routeNum, _cost, _incomePerCar, _timesPerCar, _numberOfDate, _mileage, _ratio, _companyScore]);\r\n                    uint temp = cal(_routeNum, _cost, _incomePerCar, _timesPerCar, _numberOfDate, _mileage, _ratio, _companyScore);\r\n                    bonus[i][1] = bonus[i][1] + temp;\r\n                    modifyOrNot = true;\r\n                }\r\n            }\r\n        }\r\n        if(!tag && !modifyOrNot) {\r\n            routeInfo.push([_routeName, \"_routeNum\", _routeTime]);\r\n            calInfo.push([_routeNum, _cost, _incomePerCar, _timesPerCar, _numberOfDate, _mileage, _ratio, _companyScore]);\r\n            uint result = cal(_routeNum, _cost, _incomePerCar, _timesPerCar, _numberOfDate, _mileage, _ratio, _companyScore);\r\n            bonus.push([_routeNum, result]);\r\n            return true;\r\n        }\r\n        else if(modifyOrNot) return true;\r\n        else return false;\r\n    }\r\n    \r\n    function cal(uint _routeNum, uint _cost, uint _incomePerCar, uint _timesPerCar, uint _numberOfDate, uint _mileage, uint _ratio, uint _companyScore) private returns (uint) {\r\n        uint result = ((_cost - _incomePerCar) * _timesPerCar * _numberOfDate * _mileage * _ratio * _companyScore) / 1000000000;\r\n        return result;\r\n    }\r\n    \r\n    function getBonus(uint _route) public view returns (uint) {\r\n        for(uint i = 0; i < bonus.length; i++) {\r\n            if(_route == bonus[i][0]) {\r\n                return bonus[i][1];\r\n            }\r\n        }\r\n        return 0;\r\n    }\r\n    \r\n    function getBonusLength() public view returns (uint) {\r\n        return bonus.length;\r\n    }\r\n}",
  "sourcePath": "C:/Users/JJoyce/Documents/GitHub/MOTC_Competition_Contract/contracts/Subsidy.sol",
  "compiler": {
    "name": "solc",
    "version": "0.5.16+commit.9c3226ce.Emscripten.clang"
  },
  "schemaVersion": "3.2.3",
  "updatedAt": "2020-11-16T12:08:46.579Z",
  "networkType": "ethereum",
  "devdoc": {
    "methods": {}
  },
  "userdoc": {
    "methods": {}
  }
}